:020000040000fa
:080000000001040000000000f3
:020000040000fa
:04000800a80100004b
:020000040000fa
:04000c00a801000047
:020000040000fa
:04001000a801000043
:020000040000fa
:04001400a80100003f
:020000040000fa
:04001800a80100003b
:020000040000fa
:04001c00a801000037
:020000040000fa
:04002000a801000033
:020000040000fa
:04002400a80100002f
:020000040000fa
:04002800a80100002b
:020000040000fa
:04002c00a801000027
:020000040000fa
:04003000a801000023
:020000040000fa
:04003400520c00006a
:020000040000fa
:04003800a80100001b
:020000040000fa
:04003c00a801000017
:020000040000fa
:04004000a801000013
:020000040000fa
:04004400a80100000f
:020000040000fa
:04004800a80100000b
:020000040000fa
:04004c00a801000007
:020000040000fa
:04005000a801000003
:020000040000fa
:04005400400a00005e
:020000040000fa
:04005800a8010000fb
:020000040000fa
:04005c00a8010000f7
:020000040000fa
:04006000a8010000f3
:020000040000fa
:04006400a8010000ef
:020000040000fa
:04006800a8010000eb
:020000040000fa
:04006c00a8010000e7
:020000040000fa
:04007000a8010000e3
:020000040000fa
:04007400a8010000df
:020000040000fa
:04007800a8010000db
:020000040000fa
:04007c00a8010000d7
:020000040000fa
:04008000a8010000d3
:020000040000fa
:04008400a8010000cf
:020000040000fa
:04008800a8010000cb
:020000040000fa
:04008c00a8010000c7
:020000040000fa
:04009000a8010000c3
:020000040000fa
:04009400a8010000bf
:020000040000fa
:04009800a8010000bb
:020000040000fa
:04009c00a8010000b7
:020000040000fa
:0400a000a8010000b3
:020000040000fa
:0400a400a8010000af
:020000040000fa
:0400a800a8010000ab
:020000040000fa
:0400ac00a8010000a7
:020000040000fa
:0400b000a8010000a3
:020000040000fa
:0400b400a80100009f
:020000040000fa
:0400b800a80100009b
:020000040000fa
:0400bc00a801000097
:020000040000fa
:0400c000a801000093
:020000040000fa
:0400c400a80100008f
:020000040000fa
:0400c800a80100008b
:020000040000fa
:0400cc00a801000087
:020000040000fa
:0400d000a801000083
:020000040000fa
:0400d400a80100007f
:020000040000fa
:0400d800a80100007b
:020000040000fa
:04010800a80100004a
:020000040000fa
:04010c00a801000046
:020000040000fa
:04011000a801000042
:020000040000fa
:04011400a80100003e
:020000040000fa
:04011800a80100003a
:020000040000fa
:04011c00a801000036
:020000040000fa
:04012000a801000032
:020000040000fa
:04012400a80100002e
:020000040000fa
:04012800a80100002a
:020000040000fa
:04012c00a801000026
:020000040000fa
:04013000a801000022
:020000040000fa
:04013400a80100001e
:020000040000fa
:04013800a80100001a
:020000040000fa
:04013c00a801000016
:020000040000fa
:04014000a801000012
:020000040000fa
:04014400a80100000e
:020000040000fa
:04014800a80100000a
:020000040000fa
:04014c00a801000006
:020000040000fa
:04015000a801000002
:020000040000fa
:04015400a8010000fe
:020000040000fa
:04015800a8010000fa
:020000040000fa
:04015c00a8010000f6
:020000040000fa
:04016000a8010000f2
:020000040000fa
:04016400a8010000ee
:020000040000fa
:04016800a8010000ea
:020000040000fa
:04016c00a8010000e6
:020000040000fa
:04017000a8010000e2
:020000040000fa
:04017400a8010000de
:020000040000fa
:04017800a8010000da
:020000040000fa
:04017c00a8010000d6
:020000040000fa
:04018000a8010000d2
:020000040000fa
:04018400a8010000ce
:020000040000fa
:04018800a8010000ca
:020000040000fa
:04018c00a8010000c6
:020000040000fa
:04019000a8010000c2
:020000040000fa
:04019400a8010000be
:020000040000fa
:04019800a8010000ba
:020000040000fa
:04019c00a8010000b6
:020000040000fa
:0401a000a8010000b2
:020000040000fa
:0401a400a8010000ae
:020000040000fa
:0401a800a8010000aa
:020000040000fa
:0401ac00a8010000a6
:020000040000fa
:0401b000a8010000a2
:020000040000fa
:0401b400a80100009e
:020000040000fa
:0401b800a80100009a
:020000040000fa
:0401bc00a801000096
:020000040000fa
:0401c000a801000092
:020000040000fa
:0401c400a80100008e
:020000040000fa
:0401c800a80100008a
:020000040000fa
:0401cc00a801000086
:020000040000fa
:0401d000a801000082
:020000040000fa
:0401d400a80100007e
:020000040000fa
:0401d800a80100007a
:020000040000fa
:100200006f8620000eff20000e0188000000000015
:10021000000020000000e000020032000001200089
:10022000200288000c00070020cc200001002000e4
:1002300011000700000020000000e0000200320072
:100240000000020000000000be08020000000000e4
:100250000040da000000fe004440a900e000200059
:100260000000e0000300320000002000a001880030
:100270004440a8000000060091018800800078003a
:100280000000eb0015003700e280400032a0b4000f
:100290009101ba00e280400032a0b4009102ba009d
:1002a000e280400032a0b4000002eb00472bde00e9
:1002b000f507b200602ce10004003a000059eb00a1
:1002c0008301e900fdff3e00040037006128e100e2
:1002d000010032000082eb000b00070011c3ba00de
:1002e0001101ba000604e00003003a000200e00039
:1002f000e5ff3a0000000600f607b200960188000c
:1003000082007800f5ff37003159ba008301e90017
:100310000c0032002159ba008301e90008003200c4
:100320000400e00003003a00e280400032a0b40084
:10033000f5ff370011d9ba008301e900faff3a004e
:100340008100e800e180400032a0b4000000060017
:100350000040da000000fe0003f0a200889fbe000b
:100360008a9fbe008c1f7800c7000700ce003300b4
:100370006450e1004f0032006420e100520032007e
:1003800003826c0007003b000905d0000306d00083
:10039000820f54000c065d0002003900020032009a
:1003a00089017800030678008582550004003d002d
:1003b0000003fd008103fd008502ea008b854200f9
:1003c000840f720002003b0060001000e080180003
:1003d0006011b8000005eb007a28e1000a0039003e
:1003e00006007800c75ddd00f707b2008780750062
:1003f0002d003700828171000a01780061056000dc
:100400008180d1000080d3008502e900f9ff3b0024
:10041000060440008784480002003b00600414008a
:10042000e0841c000988a300070032008a81710063
:1004300082817100610164008904d1000884d300c5
:100440008b05e800170037000978a30013003a0075
:100450000b00e000130034008b05e90008044400a1
:1004600089844c000a4474000978a3000d003a0006
:100470000b00e000070034008b05e900080444008d
:1004800089844c0001003a000b0020000978a30089
:10049000f7ff32000001eb0002003700828171009b
:1004a0000a0178003d0007000cf0a70001f0a00051
:1004b000860037006420e10002003a00838f6c0060
:1004c000860033000801be000200be007f00370036
:1004d000839f68000100e00002003d006000100002
:1004e000e08018000300e00002003d006001110000
:1004f000e0811900b00007004f00e00002003b005f
:1005000060001000e0801800000006000001be003e
:10051000480007000470a70003f0a1006509b100be
:10052000160032000d0035006828e1000600350095
:10053000f0ff2f00f1ff27000300e00013003b0055
:1005400001002800000005000000400081804800f4
:100550008502e900fcff3a0008003700f88f4200ee
:1005600002003c008000eb00000005008100d1008b
:100570000080d3008502e800fcff3a000300e000a1
:1005800002003b0060001000e08018000000060040
:100590004f89de0082017800990137008100200038
:1005a000618055000b003d000b00200061fe2f0014
:1005b0000100e1001d0034008281710061016400ce
:1005c0008904d1000884d3000000e800faff3a0053
:1005d00071002000610064000300700002006000f0
:1005e0000900320061044400e0844c000988a50041
:1005f000050032008b05e8006808e10002003a00bf
:100600008904d1000884d300f20f20000258e100d1
:1006100005003d00c75ddd00f907b2008980750067
:1006200008007800000006000bf827008b00780017
:1006300000000500c70ade00f107b200f50fb200a6
:1006400008003200e1cf4200020032000170a00039
:1006500024000500810f700001003200040805002d
:1006600044000500810f700002003a0014000500ec
:100670008502e9000000400081c04800fcff3b000b
:100680000170a000240005000004be00e9ff07007f
:100690000003be000405be000200be00e5ff070027
:1006a000844f7500000006000200be006450e100a7
:1006b000050036006420e100020036000968a3004e
:1006c00001003a000800be000160a0004f0678005b
:1006d0004f05be004f04be0000000600f0ff2f00d3
:1006e000f1ff2700f9ff3700889fbe008a9fbe00f8
:1006f0008c1f7800e4ff0700ebff330003866c00db
:100700006450e100240032006420e1002700320040
:100710006150e100220032006120e100210032003e
:100720008b854200eb07b1000134b800003ab800f5
:100730000804420089844a00013ab8000030b80039
:100740008880400009014a00040033000000400096
:1007500081804800020149008b05e900c909dd00dc
:10076000830170000100320013002000c814de0075
:100770004814dd004709de001200b200c808de00a0
:100780000884700085ff070001f0a1000cf0a700ad
:1007900001f0a000cdff37006120e100cfff320063
:1007a0000801be000200be00f7ff37006150e10003
:1007b000fcff3a00c9ff37006022b80006022000a3
:1007c0000000d0008180d2000482d2008582d20055
:1007d0000000a0000202520083825a000300310090
:1007e0000202420083824a000000a1000603e900e1
:1007f000f3ff3a0000000600889fbe008a9fbe00fb
:1008000030044200b0844a0030054b0090854b0014
:100810006000b1000898be000a90be000440e100ec
:1008200005c8e10006d0e10007d8e1000200310070
:10083000680040001008e8004f05be004f04be00ed
:1008400000000600889fbe008a9fbe003004be00e4
:100850002005be000418540005985c0006185d00d1
:1008600007985d00110020000440e10005c8e10088
:1008700006d0e10007d8e100010039008000eb005c
:10088000108810004f05be004f04be000000060097
:100890001200fa00889fbe008a9fbe008c9fbe0097
:1008a000e0b79f00f1b79f0082bf9f0093bf9f00fa
:1008b0000605be000404be000000eb00d0b79f0098
:1008c000c0b79f00b0b79f00a0b79f0090b79f0030
:1008d0000006eb005fb19700cfb0970082014100a6
:1008e0003fb097000200e00004003d003700070021
:1008f0007e805700c0ff0700030037003300070069
:100900007e805700cfff0700dfb697000d00e000a4
:100910000c0035006fb29700ffb297000fbb970035
:100920009fbb970010002000010020006011b8005c
:1009300000027200818272000203730083837300dd
:100940001b0007000c06e80001042000810f560080
:10095000e0ff3a000d00e00004003d000802be0088
:100960000a03be007e805700a3ff07005fa8970020
:100970000000e00005003a001fb29700afb29700f8
:100980003fb39700cfb39700090007006fb09700ff
:10099000ffb097000fb997009fb997004f06be00b0
:1009a0004f05be004f04be000080fa0000000600a4
:1009b0000100070000000600a4b79f00b5b79f0024
:1009c000c6b79f00d7b79f00000006004f09de00a2
:1009d00082817100b3b79f004f01de00818040002b
:1009e00082807000a1b79f008fb097004f09de0092
:1009f000000040000200700090b79f007fa89700a1
:100a00004f01de00818040008280700081b79f002e
:100a10000d0007004f3ade000000400004007000a7
:100a2000f0af9f00080007000402420085824a00e0
:100a300006034b0087834b00dfff07000802be0060
:100a40000a03be00000006002fb29700bfb2970055
:100a50004fb39700dfb3970000000600881f7800af
:100a600018002000881f780089ff07008f87e900a1
:100a70004f04780000000600801feb0084ff070091
:100a80008f87e90000000600889fbe008a9fbe0095
:100a9000e00f5000e08f5800e00f5900e08f590040
:100aa0000c003d006044b8006055b80000005400e0
:100ab00081805c0002015d0083815d0018002000e0
:100ac0001500070008003d00180007000004eb00b7
:100ad000050037000004eb000f00070002003d0096
:100ae0001200070018002000dcff07000800e000eb
:100af000060032006022b8006033b80000005200e7
:100b000081805a0002015b0083815b004f05be00bb
:100b10004f04be0000000600e00f5200e08f5a00b4
:100b2000e00f5b00e08f5b00000006006044b8004f
:100b30006055b8000402540085825c0006035d0025
:100b400087835d0000000600889fbe008a9fbe006c
:100b50008c1f7800e00f5000e08f5800e00f590024
:100b6000e08f59000d003d006044b8006055b800aa
:100b70000000540081805c0002015d0083815d0003
:100b80001c0020000820e10009a8e1000ab0e100f3
:100b90000bb8e1000d003d00080037000006eb0037
:100ba000e00f5200e08f5a00e00f5b00e08f5b0027
:100bb00006003d006044b8006055b80004025400cf
:100bc00085825c0006035d0087835d00aaff070045
:100bd0000c00e000060032006022b8006033b8006c
:100be0000000520081805a0002015b0083815b009b
:100bf0004f0678004f05be004f04be0000000600ff
:100c0000881f7800030478000300e00007003d001f
:100c100060001000e080180060011900e0811900f8
:100c200002003b0001f02d00030037000400070024
:100c300008f0a70001f0a0004f04780000000600b3
:100c4000889fbe008a9fbe0000827000040271006f
:100c500004827100260032000004be000200be00c3
:100c60006011b8006b092000950220000182cf00be
:100c70000a0039000541b1000082cf0007003900a9
:100c80000541b1000982cf00040039000541b100df
:100c90000882cf00010039000541b1000542520031
:100ca000120032000a003b00828171006101640081
:100cb0008100d1000080d3008984d3000884d30050
:100cc0008b05e8000442e800f7ff3a000700370010
:100cd0000804440089844c000000480081804800da
:100ce0008b05e9000442e900f9ff3a002bfe0700fa
:0c0cf0004f05be004f04be0000000600cf
:020000040000fa
:100cfc0000000000000000000000000000000000e8
:0c0d0c000000000000000000f4010000e6
:020000040000fa
:100d18000000fa00d902a900d222a900d262a900d3
:100d2800d242a800d202a800dec2a8000080fa00c1
:100d3800000006000200fa00004f780011479800f2
:100d48001e00fb00e20f500012003200e30f5000bb
:100d58001e003200e10f50002b003a001e409000a8
:100d68000080fb000000ea004f00de000040780031
:100d78000080fb00610060004800dd00e216800092
:100d8800f1ef2f008100610001007000e01688007b
:100d98001e0037001e4090000080fb000000ea00a3
:100da8004f00de00004078000080fb00610060001a
:100db80000004000b2168000d1ff2f0081006100c2
:100dc80001007000b0168800100037001e40900027
:100dd8000080fb000000ea004f00de0000407800c1
:100de8000080fb00610060004300dd00b216800057
:100df80071ff2f008100610001007000b0168800ab
:100e08000000000001003700000000000080fa0028
:100e1800000006000200fa00dd000700000f78005d
:100e280070428000e10f5000b6003200e10f500020
:100e380003003c000000e00006003200cb00370051
:100e4800e20f50007a003200e30f50003f003200fa
:100e5800c600370011c0b30010c0b300b5ff0700cb
:100e68008040eb0020c0b300b2ff070050c8bf00ad
:100e78000004e0002a003200400620009e007800ae
:100e8800808f500006003c00c0f92f009e007800bb
:100e9800808f50000200350010002000010037004c
:100ea8000000eb00004078008040780030c0b300bc
:100eb800a0ff0700a0168000610060000000e000ad
:100ec80009003a00100020005301070030002000fc
:100ed80070428800007122009042880020002000a3
:100ee800a0428800a10037000117800000042000fc
:100ef800008060000000e0000c003a0010002000b4
:100f08004501070030002000704288008038210029
:100f18009042880030002000a042880093003700eb
:100f28008040eb0030c0b30082ff0700a0168000ad
:100f3800640060000000e00087003a002000200004
:100f4800704288005628ef008800370011c0b300af
:100f580010c0b30077ff070011c0b30020c0b30072
:100f680074ff07008040eb0030c0b30071ff07003a
:100f7800a0428000e10f500008003a00a01680004f
:100f88006400600000f0a7000000ea000000ea002a
:100f98004f00de000040780017003700a0428000b4
:100fa800e20f500008003a00a016800061006000bf
:100fb80000f0a7000000ea000000ea004f00de0091
:100fc800004078000c003700a0428000e30f50007a
:100fd80007003a000117800000042000008060002c
:100fe8000000e0000200320010002000010037007d
:100ff8000000eb00004078000004e00058003200d8
:1010080010002000704288008040eb0010c0b30040
:1010180048ff07008040eb0020c0b30045ff0700f1
:1010280011c0b30030c0b30042ff07004f003700c3
:10103800b0428000e40f50002b003c004302070040
:101048000001be00c0428000d1428000800f5100e4
:10105800818f590044003900b04280000000e80048
:10106800b0428800b01680006200600000f0a7005f
:101078000000ea000000e9004f00de0000407800b0
:101088008040780020c0b3002aff0700c0428000db
:10109800d1428000803eb0000180b000c04288008c
:1010a800d1428800b04280006100600000407800b2
:1010b8000004e00006003200823e20000300200009
:1010c80080c12f00f1ff2f006c01070027003700b7
:1010d80082c12f00f3ff2f00803e20000100200076
:1010e80066010700210037006011b8006000b800f1
:1010f800620107004e28ef0010c0b30050e8b700a7
:101108001a0037001e0078000000e00009003d00ca
:1011180090428000cf80de00924280001e01510084
:101128006112b9000001be000400be0053010700af
:101138000e003700904280001e005000cf80de0075
:10114800924280006112b9000001be000400be0096
:101158004a010700050037000000000003003700bf
:101168000000000001003700000000000080fa00c5
:10117800000006000000fa00ba010700810007001d
:1011880015010700e2fe070022ff0700feff3700f7
:101198001400fa00889fbe006000b8006011b80013
:1011a800009fbe000297be006000b8006011b80042
:1011b8004007980051079800620798007307980045
:1011c8000000eb00000f98002b0037000e0890007d
:1011d80080004000008020000080400090007800df
:1011e800400620000088b900800078000e089000b2
:1011f8000000e8000088b90000007800cf80de0019
:101208006109b9003e02be002e03be00001f420065
:10121800019f4a00021f4b00038f4b006e00b10074
:101228000e089000800040000080200000804000f0
:1012380010007800cf80de006109b9004e029000ee
:10124800de0290006e039000fe0390000000420052
:1012580081804a0002014b0083814b0040079800bf
:101268005107980062079800730798000e089000cd
:101278000000e800000f98000e089000e80f5000ea
:10128800d2ff34004e029000de0290006e03900000
:10129800fe0390003e00be002e01be00edfd0700db
:1012a800100f9800b0418000c0418800513484007c
:1012b8001e08900000805000b0418800d141800095
:1012c800b041800000804000d0418800b0418000db
:1012d800cf80de00acfc07000002be00f0338400c3
:1012e800013484000001be000400be00fcfc0700bd
:1012f80084fc070000007800cf80de00a2fc070015
:101308000004be00d0418000cf80de009efc0700b4
:101318000002be0010348400213484000001be00a5
:101328000400be00eefc07000001be000800be007d
:1013380008fc07000004be00b1418000c0418000e5
:1013480000805000cf80de008ffc07000002be0046
:1013580030348400413484000001be000400be0023
:10136800dffc07000001be000800be00f9fb070013
:1013780064fc0700000078004f04be000080fa00fb
:10138800000006000200fa000000eb00000f7800e1
:101398000d0037001e0078008000400020812000ea
:1013a800008040008000eb00010878001e007800f3
:1013b8008000400040822000008040000140200062
:1013c800010878001e0fe8001e007800e80f5000a2
:1013d800f0ff3400f00f200030168800400e220085
:1013e80000158800004220001015880060102000b9
:1013f80020158800a622ef0000e02f004015880085
:10140800f01f2000501588008560a9008d60a80095
:101418000080fa00000006000200fa00000f7800c1
:101428001e0078000000e0000e003a001e00780060
:10143800e10f50000d003a001e00780000407800cf
:10144800614060000080fb004f00dd000215800055
:10145800f1ff27008100610001007000001588007d
:101468000300370000000000010037000000000002
:101478000080fa00000006003600f800809fbe00d9
:10148800829fbe003400f80000002000a001880000
:101498000400fa000000eb00000f78004400370059
:1014a8001e00780080004000c083200000804000bb
:1014b8001000780090007800110798001e0078004e
:1014c800800040004082200000804000100078002a
:1014d800800078001e009000808f500006003600c3
:1014e8009e0090001e00780000014000408220000d
:1014f80000004100010878001e00780080004000cc
:1015080020812000008040001000780080007800d2
:101518001e009000808f5000060031009e00900051
:101528001e007800000140002081200000004100da
:10153800010878001e0078008000400040822000ea
:1015480000804000100078009e00900080805000cd
:10155800803e20000088b900800078001e007800d6
:1015680000014000208120000000410010017800a7
:101578001e00780080014000408220000080410069
:1015880010007800000051000001780011000900e7
:101598008280d800800078001e007800000140009a
:1015a8000080200000004100010878001e0fe800bc
:1015b8001e007800e80f5000b9ff34008560a900cc
:1015c8000080fa003400f9004f01be004f00be0051
:1015d8003600f900004006000000fa00d802a90011
:1015e800d822a900d842a900d862a900dc02a90023
:1015f800dc42a900c021ef00c221ef00f03b20002f
:10160800200e8800c621ef0000032000400e88004d
:10161800ca21ef00cc21ef00d021ef0000f02f000d
:10162800a00e8800da21ef00d00e8000c00e8800de
:10163800c00e8000b00e8800b00e8000800e8800ba
:10164800800e8000600e8800600e8000500e8800ba
:10165800500e8000300e8800300e8000100e88007a
:10166800100e8000000e8800d821ef00da21ef006c
:10167800c1e1a8000080fa00000006000800fa0096
:10168800008fbe0022079800330798001e009000c4
:101698004f00de00004078000080fb006100600021
:1016a8004200dd00e2168000b1ff2f0081006100da
:1016b80001007000e01688003e0090004f00de0038
:1016c800004078000080fb0061006000e2168000a6
:1016d800e1ff2f008100610001007000e016880022
:1016e800008f2d00f1ff2f001e01be00800f51005a
:1016f800818f5900090035001e00be0002712200ca
:1017080003002000820f5000838f5800050034002a
:10171800007122000100200002003700008f2d0018
:10172800f1ff2f001e01be00e00f5100e08f5900ad
:1017380003003d0002712200030020000100370071
:101748006011b800021f4000039748002e01900066
:10175800be019000008f2d00f1ff2f00800f510077
:10176800818f59000a0035002e009000be009000bd
:101778000271220003002000820f5000838f58005e
:10178800050034000071220001002000020037002b
:10179800008f2d00f1ff2f002e019000be01900058
:1017a800e00f5100e08f590003003d000271220054
:1017b80003002000010037006011b800000041005c
:1017c8008180490020079800310798009e0090000a
:1017d8000080eb000088b900000178001e00780046
:1017e8006000b90000007800000141009e00780008
:1017f8000080eb000008b800010141008200780079
:1018080002712200030020002ffb0700000078006f
:10181800b00e8800be0090000080eb000088b90080
:10182800000178002e0090006000b90000007800e8
:1018380000014100ae0090000080eb000008b800f5
:10184800010141008200780002712200030020009b
:101858001dfb070000007800c00e88000080fa0019
:10186800000006000000fa000421ef0020088000b4
:101878000040a1000050a100200888000021ef00ce
:101888000080eb00100888008460a9008c60a80024
:1018980005e1a8000080fa0000000600809fbe0055
:1018a800829fbe003400f80000002000a0018800dc
:1018b8000600fa0000438000114380002200200047
:1018c80003002000021f40000397480064c8bf00bf
:1018d800b045b00040479800ce409000c0c7b30064
:1018e80080cf500008003600ce40900030c8b300ca
:1018f80000c040004047980012002000030020006c
:101908001e0f41005e974900ce409000438620009c
:10191800814978001e01be000243880013438800f5
:10192800e0428000f142800061004000e080480011
:10193800e0428800f14288000080fa003400f90093
:101948004f01be004f00be00004006000000fa0034
:1019580000438000114380000080fa000000060068
:101968000000fa00e0428000f14280000008800098
:0c1978006000b8000080fa0000000600cb
:020000040000fa
:101984004e0800000e0000000000000000080000e7
:101994003c000000000000003c08000012000000b1
:1019a4000200000080028200028402008602880095
:1019b400028a02008c028e00029002005c08000081
:0c19c4000a00000000000000e80c800099
:020000040000fa
:0419d0000000000013
:020000040000fa
:0200000401f009
:04000000f7bf000046
:020000040000fa
:0200000401f009
:04000400c07f0000b9
:020000040000fa
:0200000401f009
:040008007c7f0000f9
:020000040000fa
:0200000401f009
:04001400ffff0000ea
:020000040000fa
:0200000401f009
:04001800ffff0000e6
:00000001FF
